{
  "address": "0xa3C66d713211e34D9506841D1600A402a21fcD05",
  "abi": [
    {
      "inputs": [
        {
          "internalType": "address",
          "name": "vaultArg",
          "type": "address"
        },
        {
          "internalType": "address",
          "name": "swapRouter",
          "type": "address"
        }
      ],
      "stateMutability": "nonpayable",
      "type": "constructor"
    },
    {
      "anonymous": false,
      "inputs": [
        {
          "indexed": true,
          "internalType": "address",
          "name": "previousOwner",
          "type": "address"
        },
        {
          "indexed": true,
          "internalType": "address",
          "name": "newOwner",
          "type": "address"
        }
      ],
      "name": "OwnershipTransferred",
      "type": "event"
    },
    {
      "inputs": [
        {
          "internalType": "address",
          "name": "trader",
          "type": "address"
        },
        {
          "internalType": "uint256",
          "name": "maxSettlementTokenSpent",
          "type": "uint256"
        },
        {
          "internalType": "int256",
          "name": "minSettlementTokenProfit",
          "type": "int256"
        },
        {
          "components": [
            {
              "internalType": "address",
              "name": "tokenIn",
              "type": "address"
            },
            {
              "internalType": "uint24",
              "name": "fee",
              "type": "uint24"
            },
            {
              "internalType": "address",
              "name": "tokenOut",
              "type": "address"
            }
          ],
          "internalType": "struct Liquidator.Hop",
          "name": "pathHead",
          "type": "tuple"
        },
        {
          "internalType": "bytes",
          "name": "pathTail",
          "type": "bytes"
        }
      ],
      "name": "flashLiquidate",
      "outputs": [],
      "stateMutability": "nonpayable",
      "type": "function"
    },
    {
      "inputs": [
        {
          "internalType": "address",
          "name": "trader",
          "type": "address"
        }
      ],
      "name": "getMaxProfitableCollateral",
      "outputs": [
        {
          "internalType": "address",
          "name": "targetCollateral",
          "type": "address"
        }
      ],
      "stateMutability": "view",
      "type": "function"
    },
    {
      "inputs": [
        {
          "internalType": "address",
          "name": "trader",
          "type": "address"
        },
        {
          "internalType": "address[]",
          "name": "collateralList",
          "type": "address[]"
        }
      ],
      "name": "getMaxProfitableCollateralFromCollaterals",
      "outputs": [
        {
          "internalType": "address",
          "name": "targetCollateral",
          "type": "address"
        }
      ],
      "stateMutability": "view",
      "type": "function"
    },
    {
      "inputs": [],
      "name": "getVault",
      "outputs": [
        {
          "internalType": "address",
          "name": "",
          "type": "address"
        }
      ],
      "stateMutability": "view",
      "type": "function"
    },
    {
      "inputs": [],
      "name": "owner",
      "outputs": [
        {
          "internalType": "address",
          "name": "",
          "type": "address"
        }
      ],
      "stateMutability": "view",
      "type": "function"
    },
    {
      "inputs": [],
      "name": "renounceOwnership",
      "outputs": [],
      "stateMutability": "nonpayable",
      "type": "function"
    },
    {
      "inputs": [
        {
          "internalType": "address",
          "name": "newOwner",
          "type": "address"
        }
      ],
      "name": "transferOwnership",
      "outputs": [],
      "stateMutability": "nonpayable",
      "type": "function"
    },
    {
      "inputs": [
        {
          "internalType": "int256",
          "name": "amount0Delta",
          "type": "int256"
        },
        {
          "internalType": "int256",
          "name": "amount1Delta",
          "type": "int256"
        },
        {
          "internalType": "bytes",
          "name": "_data",
          "type": "bytes"
        }
      ],
      "name": "uniswapV3SwapCallback",
      "outputs": [],
      "stateMutability": "nonpayable",
      "type": "function"
    },
    {
      "inputs": [
        {
          "internalType": "address",
          "name": "token",
          "type": "address"
        }
      ],
      "name": "withdraw",
      "outputs": [],
      "stateMutability": "nonpayable",
      "type": "function"
    }
  ],
  "transactionHash": "0x1bcd9782cbdcaa59c3432c00af5b0b263c295a90799dc38bfee49a6254e59146",
  "args": [
    "0xB0ff090d04c268ABb26450ba749f0497EFA9Bb7C",
    "0x68b3465833fb72A70ecDF485E0e4C7bD8665Fc45"
  ],
  "solcInputHash": "722582f722e19d53aff3897efde91fb5",
  "bytecode": "0x6080604052600380546001600160a01b03191660011790553480156200002457600080fd5b50604051620024c6380380620024c68339810160408190526200004791620005c7565b60006200005362000178565b600080546001600160a01b0319166001600160a01b0383169081178255604051929350917f8be0079c531659141344cd1fd0a4f28419497f9722a3daafe3b4186f6b6457e0908290a350600180546001600160a01b038085166001600160a01b0319928316179283905560028054858316931692909217909155604080516312803c7d60e01b81529051600093909216916312803c7d91600480820192602092909190829003018186803b1580156200010b57600080fd5b505afa15801562000120573d6000803e3d6000fd5b505050506040513d601f19601f82011682018060405250810190620001469190620005aa565b90506200016f83600019836001600160a01b03166200017c60201b62000ed6179092919060201c565b505050620005fe565b3390565b80158062000206575060408051636eb1769f60e11b81523060048201526001600160a01b03848116602483015291519185169163dd62ed3e91604480820192602092909190829003018186803b158015620001d657600080fd5b505afa158015620001eb573d6000803e3d6000fd5b505050506040513d60208110156200020257600080fd5b5051155b620002435760405162461bcd60e51b8152600401808060200182810382526036815260200180620024906036913960400191505060405180910390fd5b604080516001600160a01b038416602482015260448082018490528251808303909101815260649091019091526020810180516001600160e01b0390811663095ea7b360e01b179091526200029b918591620002a016565b505050565b6000620002fc826040518060400160405280602081526020017f5361666545524332303a206c6f772d6c6576656c2063616c6c206661696c6564815250856001600160a01b03166200035c60201b62000fee179092919060201c565b8051909150156200029b578080602001905160208110156200031d57600080fd5b50516200029b5760405162461bcd60e51b815260040180806020018281038252602a81526020018062002466602a913960400191505060405180910390fd5b60606200036d848460008562000377565b90505b9392505050565b606082471015620003ba5760405162461bcd60e51b8152600401808060200182810382526026815260200180620024406026913960400191505060405180910390fd5b620003c585620004de565b62000417576040805162461bcd60e51b815260206004820152601d60248201527f416464726573733a2063616c6c20746f206e6f6e2d636f6e7472616374000000604482015290519081900360640190fd5b600080866001600160a01b031685876040518082805190602001908083835b60208310620004575780518252601f19909201916020918201910162000436565b6001836020036101000a03801982511681845116808217855250505050505090500191505060006040518083038185875af1925050503d8060008114620004bb576040519150601f19603f3d011682016040523d82523d6000602084013e620004c0565b606091505b509092509050620004d3828286620004e8565b979650505050505050565b803b15155b919050565b60608315620004f957508162000370565b8251156200050a5782518084602001fd5b8160405162461bcd60e51b81526004018080602001828103825283818151815260200191508051906020019080838360005b83811015620005565781810151838201526020016200053c565b50505050905090810190601f168015620005845780820380516001836020036101000a031916815260200191505b509250505060405180910390fd5b80516001600160a01b0381168114620004e357600080fd5b600060208284031215620005bc578081fd5b620003708262000592565b60008060408385031215620005da578081fd5b620005e58362000592565b9150620005f56020840162000592565b90509250929050565b611e32806200060e6000396000f3fe608060405234801561001057600080fd5b50600436106100835760003560e01c806351cff8d91461008857806366d509231461009d578063715018a6146100c657806372feb49e146100ce5780638d928af8146100e15780638da5cb5b146100e9578063afa0b15d146100f1578063f2fde38b14610104578063fa461e3314610117575b600080fd5b61009b61009636600461167f565b61012a565b005b6100b06100ab36600461167f565b610227565b6040516100bd9190611ab5565b60405180910390f35b61009b610395565b6100b06100dc3660046116b7565b610441565b6100b0610640565b6100b061064f565b61009b6100ff366004611769565b61065e565b61009b61011236600461167f565b6109b2565b61009b610125366004611920565b610ab4565b610132611007565b6001600160a01b031661014361064f565b6001600160a01b03161461018c576040805162461bcd60e51b81526020600482018190526024820152600080516020611d55833981519152604482015290519081900360640190fd5b61022461019761064f565b6040516370a0823160e01b81526001600160a01b038416906370a08231906101c3903090600401611ab5565b60206040518083038186803b1580156101db57600080fd5b505afa1580156101ef573d6000803e3d6000fd5b505050506040513d601f19601f820116820180604052508101906102139190611a52565b6001600160a01b038416919061100b565b50565b6001546040516376c81fbd60e11b815260009182916001600160a01b039091169063ed903f7a9061025c908690600401611ab5565b60006040518083038186803b15801561027457600080fd5b505afa158015610288573d6000803e3d6000fd5b505050506040513d6000823e601f3d908101601f191682016040526102b09190810190611845565b80516000935090915082805b8281101561038c5760015484516000916001600160a01b03169063b334b5ad9089908890869081106102ea57fe5b60200260200101516040518363ffffffff1660e01b815260040161030f929190611ac9565b604080518083038186803b15801561032657600080fd5b505afa15801561033a573d6000803e3d6000fd5b505050506040513d601f19601f8201168201806040525081019061035e91906118fd565b509050828111156103835780925084828151811061037857fe5b602002602001015195505b506001016102bc565b50505050919050565b61039d611007565b6001600160a01b03166103ae61064f565b6001600160a01b0316146103f7576040805162461bcd60e51b81526020600482018190526024820152600080516020611d55833981519152604482015290519081900360640190fd5b600080546040516001600160a01b03909116907f8be0079c531659141344cd1fd0a4f28419497f9722a3daafe3b4186f6b6457e0908390a3600080546001600160a01b0319169055565b805160009081805b8281101561063757600160009054906101000a90046001600160a01b03166001600160a01b031663dfa441be6040518163ffffffff1660e01b815260040160206040518083038186803b15801561049f57600080fd5b505afa1580156104b3573d6000803e3d6000fd5b505050506040513d601f19601f820116820180604052508101906104d7919061169b565b6001600160a01b0316630ee21e548683815181106104f157fe5b60200260200101516040518263ffffffff1660e01b81526004016105159190611ab5565b60206040518083038186803b15801561052d57600080fd5b505afa158015610541573d6000803e3d6000fd5b505050506040513d601f19601f8201168201806040525081019061056591906118dd565b61056e5761062f565b60015485516000916001600160a01b03169063b334b5ad90899089908690811061059457fe5b60200260200101516040518363ffffffff1660e01b81526004016105b9929190611ac9565b604080518083038186803b1580156105d057600080fd5b505afa1580156105e4573d6000803e3d6000fd5b505050506040513d601f19601f8201168201806040525081019061060891906118fd565b5090508281111561062d5780925085828151811061062257fe5b602002602001015194505b505b600101610449565b50505092915050565b6001546001600160a01b031690565b6000546001600160a01b031690565b610666611007565b6001600160a01b031661067761064f565b6001600160a01b0316146106c0576040805162461bcd60e51b81526020600482018190526024820152600080516020611d55833981519152604482015290519081900360640190fd5b600154825160405163b334b5ad60e01b815260009283926001600160a01b039091169163b334b5ad916106f8918b9190600401611ac9565b604080518083038186803b15801561070f57600080fd5b505afa158015610723573d6000803e3d6000fd5b505050506040513d601f19601f8201168201806040525081019061074791906118fd565b91509150600082116107745760405162461bcd60e51b815260040161076b90611b9d565b60405180910390fd5b85821115610804576001548451604051639401a1bf60e01b81526001600160a01b0390921691639401a1bf916107ae918a90600401611b42565b60206040518083038186803b1580156107c657600080fd5b505afa1580156107da573d6000803e3d6000fd5b505050506040513d601f19601f820116820180604052508101906107fe9190611a52565b90508591505b6040840151845160208601516001600160a01b03808416908316109260009261082f9290919061105d565b9050600061084688610840876110f8565b90611144565b905060006040518060a001604052808881526020018c6001600160a01b0316815260200189600001516001600160a01b03168152602001846001600160a01b03168152602001600084126108a25761089d846111a9565b6108a5565b60005b90526040516108b79190602001611c32565b60408051808303601f19018152919052600380546001600160a01b0319166001600160a01b03861690811790915590915063128acb0830866108f8896110f8565b886109175773fffd8963efd1fc6a506488495d951d5263988d2561091e565b6401000276a45b866040518663ffffffff1660e01b815260040161093f959493929190611b07565b6040805180830381600087803b15801561095857600080fd5b505af115801561096c573d6000803e3d6000fd5b505050506040513d601f19601f8201168201806040525081019061099091906118fd565b5050600380546001600160a01b03191660011790555050505050505050505050565b6109ba611007565b6001600160a01b03166109cb61064f565b6001600160a01b031614610a14576040805162461bcd60e51b81526020600482018190526024820152600080516020611d55833981519152604482015290519081900360640190fd5b6001600160a01b038116610a595760405162461bcd60e51b8152600401808060200182810382526026815260200180611ce86026913960400191505060405180910390fd5b600080546040516001600160a01b03808516939216917f8be0079c531659141344cd1fd0a4f28419497f9722a3daafe3b4186f6b6457e091a3600080546001600160a01b0319166001600160a01b0392909216919091179055565b6003546001600160a01b03163314610ade5760405162461bcd60e51b815260040161076b90611b7d565b600084138015610aee5750600083125b80610b045750600084128015610b045750600083135b610b205760405162461bcd60e51b815260040161076b90611bbb565b6000610b2e8284018461199a565b9050600080600080878913610c3157878960000386606001516001600160a01b031663d21220a76040518163ffffffff1660e01b815260040160206040518083038186803b158015610b7f57600080fd5b505afa158015610b93573d6000803e3d6000fd5b505050506040513d601f19601f82011682018060405250810190610bb7919061169b565b87606001516001600160a01b0316630dfe16816040518163ffffffff1660e01b815260040160206040518083038186803b158015610bf457600080fd5b505afa158015610c08573d6000803e3d6000fd5b505050506040513d601f19601f82011682018060405250810190610c2c919061169b565b610d20565b888860000386606001516001600160a01b0316630dfe16816040518163ffffffff1660e01b815260040160206040518083038186803b158015610c7357600080fd5b505afa158015610c87573d6000803e3d6000fd5b505050506040513d601f19601f82011682018060405250810190610cab919061169b565b87606001516001600160a01b031663d21220a76040518163ffffffff1660e01b815260040160206040518083038186803b158015610ce857600080fd5b505afa158015610cfc573d6000803e3d6000fd5b505050506040513d601f19601f82011682018060405250810190610d20919061169b565b8851519397509195509350915015610dfe57600254610d4c906001600160a01b03838116911685610ed6565b6040805160a0810182528651815230602082015242818301526060810185905260808088015190820152600254915163c04b8d5960e01b815290916001600160a01b03169063c04b8d5990610da5908490600401611bda565b602060405180830381600087803b158015610dbf57600080fd5b505af1158015610dd3573d6000803e3d6000fd5b505050506040513d601f19601f82011682018060405250810190610df79190611a52565b5050610e22565b8460800151831015610e225760405162461bcd60e51b815260040161076b90611b5b565b60015460208601516040808801519051631968623560e21b81526001600160a01b03909316926365a188d492610e5e9290918990600401611ae3565b602060405180830381600087803b158015610e7857600080fd5b505af1158015610e8c573d6000803e3d6000fd5b505050506040513d601f19601f82011682018060405250810190610eb09190611a52565b506060850151610ecb906001600160a01b038416908661100b565b505050505050505050565b801580610f5c575060408051636eb1769f60e11b81523060048201526001600160a01b03848116602483015291519185169163dd62ed3e91604480820192602092909190829003018186803b158015610f2e57600080fd5b505afa158015610f42573d6000803e3d6000fd5b505050506040513d6020811015610f5857600080fd5b5051155b610f975760405162461bcd60e51b8152600401808060200182810382526036815260200180611dc76036913960400191505060405180910390fd5b604080516001600160a01b038416602482015260448082018490528251808303909101815260649091019091526020810180516001600160e01b031663095ea7b360e01b179052610fe9908490611200565b505050565b6060610ffd84846000856112b1565b90505b9392505050565b3390565b604080516001600160a01b038416602482015260448082018490528251808303909101815260649091019091526020810180516001600160e01b031663a9059cbb60e01b179052610fe9908490611200565b6000610ffd600260009054906101000a90046001600160a01b03166001600160a01b031663c45a01556040518163ffffffff1660e01b815260040160206040518083038186803b1580156110b057600080fd5b505afa1580156110c4573d6000803e3d6000fd5b505050506040513d601f19601f820116820180604052508101906110e8919061169b565b6110f386868661140c565b611462565b6000600160ff1b821061113c5760405162461bcd60e51b8152600401808060200182810382526028815260200180611d756028913960400191505060405180910390fd5b50805b919050565b60008282018183128015906111595750838112155b8061116e575060008312801561116e57508381125b6110005760405162461bcd60e51b8152600401808060200182810382526021815260200180611d0e6021913960400191505060405180910390fd5b60008082121561113c576040805162461bcd60e51b815260206004820181905260248201527f53616665436173743a2076616c7565206d75737420626520706f736974697665604482015290519081900360640190fd5b6000611255826040518060400160405280602081526020017f5361666545524332303a206c6f772d6c6576656c2063616c6c206661696c6564815250856001600160a01b0316610fee9092919063ffffffff16565b805190915015610fe95780806020019051602081101561127457600080fd5b5051610fe95760405162461bcd60e51b815260040180806020018281038252602a815260200180611d9d602a913960400191505060405180910390fd5b6060824710156112f25760405162461bcd60e51b8152600401808060200182810382526026815260200180611d2f6026913960400191505060405180910390fd5b6112fb85611546565b61134c576040805162461bcd60e51b815260206004820152601d60248201527f416464726573733a2063616c6c20746f206e6f6e2d636f6e7472616374000000604482015290519081900360640190fd5b600080866001600160a01b031685876040518082805190602001908083835b6020831061138a5780518252601f19909201916020918201910161136b565b6001836020036101000a03801982511681845116808217855250505050505090500191505060006040518083038185875af1925050503d80600081146113ec576040519150601f19603f3d011682016040523d82523d6000602084013e6113f1565b606091505b509150915061140182828661154c565b979650505050505050565b6114146115f0565b826001600160a01b0316846001600160a01b03161115611432579192915b50604080516060810182526001600160a01b03948516815292909316602083015262ffffff169181019190915290565b600081602001516001600160a01b031682600001516001600160a01b03161061148a57600080fd5b50805160208083015160409384015184516001600160a01b0394851681850152939091168385015262ffffff166060808401919091528351808403820181526080840185528051908301206001600160f81b031960a085015294901b6bffffffffffffffffffffffff191660a183015260b58201939093527fe34f199b19b2b4f47f68442619d555527d244f78a3297ea89325f843f87b8b5460d5808301919091528251808303909101815260f5909101909152805191012090565b3b151590565b6060831561155b575081611000565b82511561156b5782518084602001fd5b8160405162461bcd60e51b81526004018080602001828103825283818151815260200191508051906020019080838360005b838110156115b557818101518382015260200161159d565b50505050905090810190601f1680156115e25780820380516001836020036101000a031916815260200191505b509250505060405180910390fd5b604080516060810182526000808252602082018190529181019190915290565b803561113f81611cd2565b600082601f83011261162b578081fd5b81356001600160401b0381111561163e57fe5b611651601f8201601f1916602001611c92565b818152846020838601011115611665578283fd5b816020850160208301379081016020019190915292915050565b600060208284031215611690578081fd5b813561100081611cd2565b6000602082840312156116ac578081fd5b815161100081611cd2565b600080604083850312156116c9578081fd5b82356116d481611cd2565b91506020838101356001600160401b038111156116ef578283fd5b8401601f810186136116ff578283fd5b803561171261170d82611cb5565b611c92565b81815283810190838501858402850186018a101561172e578687fd5b8694505b8385101561175957803561174581611cd2565b835260019490940193918501918501611732565b5080955050505050509250929050565b600080600080600085870360e0811215611781578182fd5b863561178c81611cd2565b955060208701359450604087013593506060605f19820112156117ad578182fd5b50604051606081016001600160401b0382821081831117156117cb57fe5b81604052606089013591506117df82611cd2565b90825260808801359062ffffff821682146117f8578384fd5b81602084015260a0890135915061180e82611cd2565b81604084015282945060c089013592508083111561182a578384fd5b50506118388882890161161b565b9150509295509295909350565b60006020808385031215611857578182fd5b82516001600160401b0381111561186c578283fd5b8301601f8101851361187c578283fd5b805161188a61170d82611cb5565b81815283810190838501858402850186018910156118a6578687fd5b8694505b838510156118d15780516118bd81611cd2565b8352600194909401939185019185016118aa565b50979650505050505050565b6000602082840312156118ee578081fd5b81518015158114611000578182fd5b6000806040838503121561190f578182fd5b505080516020909101519092909150565b60008060008060608587031215611935578182fd5b843593506020850135925060408501356001600160401b0380821115611959578384fd5b818701915087601f83011261196c578384fd5b81358181111561197a578485fd5b88602082850101111561198b578485fd5b95989497505060200194505050565b6000602082840312156119ab578081fd5b81356001600160401b03808211156119c1578283fd5b9083019060a082860312156119d4578283fd5b60405160a0810181811083821117156119e957fe5b6040528235828111156119fa578485fd5b611a068782860161161b565b825250611a1560208401611610565b6020820152611a2660408401611610565b6040820152611a3760608401611610565b60608201526080830135608082015280935050505092915050565b600060208284031215611a63578081fd5b5051919050565b60008151808452815b81811015611a8f57602081850181015186830182015201611a73565b81811115611aa05782602083870101525b50601f01601f19169290920160200192915050565b6001600160a01b0391909116815260200190565b6001600160a01b0392831681529116602082015260400190565b6001600160a01b039384168152919092166020820152604081019190915260600190565b6001600160a01b0386811682528515156020830152604082018590528316606082015260a06080820181905260009061140190830184611a6a565b6001600160a01b03929092168252602082015260400190565b60208082526008908201526704c5f4c544d5354560c41b604082015260600190565b6020808252600690820152654c5f4e50504160d01b604082015260600190565b6020808252600490820152631317d39360e21b604082015260600190565b6020808252600590820152644c5f46305360d81b604082015260600190565b600060208252825160a06020840152611bf660c0840182611a6a565b905060018060a01b0360208501511660408401526040840151606084015260608401516080840152608084015160a08401528091505092915050565b600060208252825160a06020840152611c4e60c0840182611a6a565b9050602084015160018060a01b0380821660408601528060408701511660608601528060608701511660808601525050608084015160a08401528091505092915050565b6040518181016001600160401b0381118282101715611cad57fe5b604052919050565b60006001600160401b03821115611cc857fe5b5060209081020190565b6001600160a01b038116811461022457600080fdfe4f776e61626c653a206e6577206f776e657220697320746865207a65726f20616464726573735369676e6564536166654d6174683a206164646974696f6e206f766572666c6f77416464726573733a20696e73756666696369656e742062616c616e636520666f722063616c6c4f776e61626c653a2063616c6c6572206973206e6f7420746865206f776e657253616665436173743a2076616c756520646f65736e27742066697420696e20616e20696e743235365361666545524332303a204552433230206f7065726174696f6e20646964206e6f7420737563636565645361666545524332303a20617070726f76652066726f6d206e6f6e2d7a65726f20746f206e6f6e2d7a65726f20616c6c6f77616e6365a264697066735822122020619ede2bbb72d0e48390bce6af6e58468e8c844a6f5a2033769cca4002981c64736f6c63430007060033416464726573733a20696e73756666696369656e742062616c616e636520666f722063616c6c5361666545524332303a204552433230206f7065726174696f6e20646964206e6f7420737563636565645361666545524332303a20617070726f76652066726f6d206e6f6e2d7a65726f20746f206e6f6e2d7a65726f20616c6c6f77616e6365",
  "devdoc": {
    "kind": "dev",
    "methods": {
      "flashLiquidate(address,uint256,int256,(address,uint24,address),bytes)": {
        "params": {
          "maxSettlementTokenSpent": "The maximum amount of the settlement token                                should be paid to the Vault",
          "minSettlementTokenProfit": "The minimum amount of the settlement token                                 should be earned (negative = allow liquidation at a loss)",
          "pathHead": "Path for swapping tokens                 For single swaps, it's somewhat like { tokenIn: eth, fee, tokenOut: usdc }                 For multihop swaps, it's somewhat like { tokenIn: perp, fee, tokenOut: eth }",
          "pathTail": "To fulfill multihop swaps, this is the path after `pathHead`                 For single swaps, directly pass `0x`                 For multihop swaps, it's somewhat like `abi.encodePacked(eth, fee, usdc)`",
          "trader": "The address of the liquidatable trader"
        }
      },
      "getMaxProfitableCollateral(address)": {
        "params": {
          "trader": "The address of the liquidatable trader"
        },
        "returns": {
          "targetCollateral": "The most profitable collateral from the liquidatable trader"
        }
      },
      "getMaxProfitableCollateralFromCollaterals(address,address[])": {
        "params": {
          "collateralList": "Specific collateral list",
          "trader": "The address of the liquidatable trader"
        },
        "returns": {
          "targetCollateral": "The most profitable collateral from the liquidatable trader"
        }
      },
      "owner()": {
        "details": "Returns the address of the current owner."
      },
      "renounceOwnership()": {
        "details": "Leaves the contract without owner. It will not be possible to call `onlyOwner` functions anymore. Can only be called by the current owner. NOTE: Renouncing ownership will leave the contract without an owner, thereby removing any functionality that is only available to the owner."
      },
      "transferOwnership(address)": {
        "details": "Transfers ownership of the contract to a new account (`newOwner`). Can only be called by the current owner."
      },
      "uniswapV3SwapCallback(int256,int256,bytes)": {
        "details": "In the implementation you must pay the pool tokens owed for the swap. The caller of this method must be checked to be a UniswapV3Pool deployed by the canonical UniswapV3Factory. amount0Delta and amount1Delta can both be 0 if no tokens were swapped.",
        "params": {
          "amount0Delta": "The amount of token0 that was sent (negative) or must be received (positive) by the pool by the end of the swap. If positive, the callback must send that amount of token0 to the pool.",
          "amount1Delta": "The amount of token1 that was sent (negative) or must be received (positive) by the pool by the end of the swap. If positive, the callback must send that amount of token1 to the pool.",
          "data": "Any data passed through by the caller via the IUniswapV3PoolActions#swap call"
        }
      }
    },
    "version": 1
  },
  "userdoc": {
    "kind": "user",
    "methods": {
      "flashLiquidate(address,uint256,int256,(address,uint24,address),bytes)": {
        "notice": "Liquidate tradedr's collateral by using flash swap on uniswap v3"
      },
      "getMaxProfitableCollateral(address)": {
        "notice": "Get the most profitable collateral from the liquidatable trader"
      },
      "getMaxProfitableCollateralFromCollaterals(address,address[])": {
        "notice": "Get the most profitable collateral from the liquidatable trader and only accept specific collaterals"
      },
      "uniswapV3SwapCallback(int256,int256,bytes)": {
        "notice": "Called to `msg.sender` after executing a swap via IUniswapV3Pool#swap."
      }
    },
    "version": 1
  },
  "storageLayout": {
    "storage": [
      {
        "astId": 7,
        "contract": "contracts/Liquidator.sol:Liquidator",
        "label": "_owner",
        "offset": 0,
        "slot": "0",
        "type": "t_address"
      },
      {
        "astId": 3720,
        "contract": "contracts/Liquidator.sol:Liquidator",
        "label": "_vault",
        "offset": 0,
        "slot": "1",
        "type": "t_address"
      },
      {
        "astId": 3722,
        "contract": "contracts/Liquidator.sol:Liquidator",
        "label": "_swapRouter",
        "offset": 0,
        "slot": "2",
        "type": "t_address"
      },
      {
        "astId": 3728,
        "contract": "contracts/Liquidator.sol:Liquidator",
        "label": "_permissivePairAddress",
        "offset": 0,
        "slot": "3",
        "type": "t_address"
      }
    ],
    "types": {
      "t_address": {
        "encoding": "inplace",
        "label": "address",
        "numberOfBytes": "20"
      }
    }
  }
}